:0204F9002E00D3
:100003001204907517047BB37A157D017F011203E7
:10001300FDD296D29700000000C2967F1E7E00128A
:10002300047BD2961201D88E088F09E50925E0F5E5
:100033000DE50833F50CD3E50D94B3E50C946A4054
:100043000C744D250DF50D7495350C800BC374B3ED
:10005300950DF50D746A950CF50CFEAF0D7C007DC6
:10006300641200E88E0F8F107C007D641200D6C3EB
:10007300E50D9FF512E50C9EF511751704AB10AA5B
:100083000F7D017F021203FD7BFF7A0479F97D0561
:100093007F02120361751702AB12AA117D067F025C
:0600A3001203FD0200271C
:10047B00EF1FAC0670011E4C600A7D027CEFDCFEA8
:04048B00DDFC80EC28
:01048F00224A
:0604A400C2A58F80D2A763
:0804AA007F027EEFDEFEDFFCA5
:0104B2002227
:0A04CB00C2A61204A4C2A70204AAEC
:1003A300CFCDCFCECCCE1200E87C007D0A1200E880
:0403B300ED2430FF06
:0A03B700D2A61204A4C2A70204AAF1
:10044F00AE07BE0104ED148006BE0209ED243F4441
:06045F0080FF1204CB2215
:100490007F381204CB7F0C1204CB7F061204CB7F73
:0404A000010204CB86
:0A04D500AC0312044FAF040203B79A
:060361008B138A148915BC
:1003670012044FE4FDAB13AA14A9158D82758300FF
:0C0377001200A9FF60061203B70D80E918
:010383002257
:0C0283007F0AEA24FFFDE434FFFC7E004B
:08028F008E188F198C1A8D1BCB
:100297007F017E00E4FBEBC3951BE51A6480F874CD
:0E02A7008098500AAC18AD191200D60B80E8F2
:0102B5002226
:0403FD008A158B16BC
:1004010012044FAA17EAD39400400D120283AC15CF
:08041100AD161203A31A80EDE1
:0104190022C0
:10019E0012044FC3EA64809480400B7F2B1203B786
:1001AE008A268B27800E7F2D1203B7C3E49BF5277B
:1001BE00E49AF526AA25EAD39400400D120283ACE8
:0901CE0026AD271203A31A80EDEF
:0101D7002205
:040212008A2A8B2B7E
:1002160012044FAA2CEAD3940040297F10120285BB
:10022600AC2AAD2BCFCDCFCECCCE1200E8EF540FFB
:10023600FEC3940AEE5004243080022437FF1203D2
:04024600B71A80D192
:01024A002291
:04024B008A2F8B303B
:10024F0012044FAA31EAD394004028EA24FFFDE4B8
:10025F0034FFFC7F027E0012028FAC2FAD30CFCD6A
:10026F00CFCECCCE1200E8EF54012430FF1203B7EB
:03027F001A80D210
:010282002259
:10013D00E4F51F20B1137F14FE12047B30B1FD7F57
:10014D00147E0012047B751F0120B0147F147E00F5
:10015D0012047B30B0FD7F147E0012047B751F02EC
:10016D0020B2147F147E0012047B30B2FD7F147E0A
:10017D000012047B751F0320B3147F147E0012043C
:10018D007B30B3FD7F147E0012047B751F04AF1FFF
:01019D00223F
:10033D008F1C8C1D8D1E1204E97FA0120314120454
:10034D00B3AF1C1203141204B3AF1E120314120424
:04035D00B30204F2F1
:0202B6008F3582
:1002B8001204E97FA01203141204B3AF3512031419
:1002C8001204B31204E97FA11203141204B3120337
:0D02D800C18F367F011204DF1204F2AF3631
:0102E50022F6
:0904E900D2A0D2A1C2A0C2A1223E
:0704F200C2A0D2A1D2A0229A
:02031400AD0733
:10031600E4FB74807E00A803088006CEA2E713CE15
:1003260013D8F8FFEDF582EF558224FF92A0D2A1F3
:06033600C2A10BBB08DCB4
:01033C00229E
:1003C100E4FFD2A0FED2A130A00D7480A80608805F
:0D03D10002C313D8FC4207C2A10EBE08E80B
:0103DE0022FC
:0A04DF00EF24FF92A0D2A1C2A122D7
:0B04B300D2A0D2A1A2A0E433FFC2A19E
:0104BE00221B
:10041A00D2970000000000D2960000000000C297A8
:0D042A000000000000C2960000000000224B
:10043700C2960000000000C2970000000000D2969C
:080447000000000000D2972222
:10038400200704C2978002D29700D2960000000092
:0F03940000000000C296000000000000000022E0
:1003DF00D297D200D2960000000000000000A29732
:0E03EF00920000C296000000000000000022F4
:1002E6007E0AAD07E4FCED30E704D2078002C207C0
:1002F600120384ED25E0FD0CBC08EB1203DF300091
:0D0306000C120437EE60061E12041A80D59A
:0103130022C7
:10046500E4FFFEEF25E0FF1203DF3000010F0EBEB3
:0504750008F1120384F0
:01047A00225F
:1001D80012041A7FB41202E67F071202E612041A0A
:1001E8007F011202E6C2071204658F33C2071204A8
:1001F800658F32D2071204658F34120437E532FE58
:0A0208007C00E42533FFEC3EFE22EB
:030000000204BF38
:0C04BF00787FE4F6D8FD7581360200035A
:1000A900BB010CE58229F582E5833AF583E022500C
:1000B90006E92582F8E622BBFE06E92582F8E22256
:0D00C900E58229F582E5833AF583E4932270
:1000D600EF8DF0A4A8F0CF8CF0A428CE8DF0A42E3E
:0200E600FE22F8
:1000E800BC000BBE0029EF8DF084FFADF022E4CCFC
:1000F800F875F008EF2FFFEE33FEEC33FCEE9DECC5
:10010800984005FCEE9DFE0FD5F0E9E4CEFD22ED0A
:10011800F8F5F0EE8420D21CFEADF075F008EF2F54
:10012800FFED33FD4007985006D5F0F222C398FD45
:050138000FD5F0EA22E2
:00000001FF
